:100000000C9434000C94A5000C94A5000C94A5004D
:100010000C94A5000C94A5000C94A5000C94A500CC
:100020000C94A5000C94A5000C94A5000C94A500BC
:100030000C94A5000C94A5000C94A5000C94A500AC
:100040000C94A5000C94A5000C94A5000C94A5009C
:100050000C94A5000C94A5000C94A5000C94A5008C
:100060000C94A5000C94A50011241FBECFEFD8E07E
:10007000DEBFCDBF0E9440000C947B00F894FFCF00
:100080008FE991E00E947000C0E0D0E00E949600ED
:10009000182F7E018FEFE81AF80A612FCE010E9417
:1000A000A200E7011A3091F780E090E08C010F5F29
:1000B0001F4F0E949D00C82F0E948F00C801CA30A8
:0400C000A9F7E2CFEB
:1000C400262FF999FECF1FBA92BD81BD20BD0FB670
:0C00D400F894FA9AF99A0FBE019608956C
:1000E0009093C5008093C40088E18093C10086E0AE
:0600F0008093C200089598
:1000F600EC010E94AA000E94A900CE010E94AB005A
:06010600CE010E94A700DB
:10010C00CB01F999FECF92BD81BDF89A992780B5A4
:02011C00089544
:0E011E009091C00095FFFCCF8093C60008951D
:0E012C008091C0008823E4F78091C6000895FA
:0A013A00BC0180E80E9486000895D1
:060144000E946200089514
:04014A000C94000011
:04014E000E943E00CD
:0201520008950E
:0201540008950C
:0201560008950A
:00000001FF
